:020000021000EC
:10200000187B002079AF020071B0020071B00200AD
:1020100000000000000000000000000000000000C0
:102020000000000000000000000000000DA1010001
:10203000000000000000000031A2010079A20100B0
:1020400071B0020071B0020071B00200C9700200EC
:10205000F565020071B002006124010071B0020058
:10206000A52501006D770200857702009D770200AB
:10207000B5770200CD770200E5770200C1AE02001D
:10208000D5AE0200E9AE0200497D01005D7D010090
:10209000717D01000000000000000000E922010045
:1020A00071B002002524010071B0020071B002007D
:1020B0000000000010B5064C2378002B07D1054B1B
:1020C000002B02D0044800E000BF0123237010BDA4
:1020D000000300200000000068A40300084B10B5B6
:1020E000002B03D00749084800E000BF07480368F9
:1020F000002B00D110BD064B002BFBD09847F9E711
:10210000000000000403002068A4030068A403008A
:102110000000000080B584B000AF78607B681B6869
:10212000FB60FB685B7EDBB25BB2002B01DA012354
:1021300000E000231800BD4604B080BD80B584B027
:1021400000AF78607B681B68FB60C0467B68180046
:102150000B4B9847031EF9D1FB681B7BDBB20222B5
:102160001343DAB2FB681A73C0467B681800044B4D
:102170009847031EF9D1C046BD4604B080BDC04695
:102180001521010080B584B000AF78600A00FB1C07
:102190001A707B681B68FB60FB68FA1C12789A75E2
:1021A000C046BD4604B080BD80B584B000AF02001B
:1021B000FB1D1A70FB1D1A78474B9200D358FB6029
:1021C000FB681B681B7EDAB2FB681B68DB7DDBB239
:1021D0001340DBB2BB60BB680122134045D0FB68F3
:1021E0001B6801221A76C046FB6818003B4B9847D3
:1021F000031EF9D1FB685B69991CFA685161FA68A2
:102200001268528B92B21A80FB681B8B9BB2013B07
:102210009BB2FA68191C1183002B08D0FB685B7F06
:10222000002B22D0FB6818002D4B98471DE0FB685F
:10223000012118002B4B9847FB681B7FDBB2052B55
:1022400013D1FB6800221A77FB68DB7E1A0001239A
:1022500013400AD0FB689B7E1A000123134004D070
:10226000FB689B68FA6810009847BB68042213401B
:1022700014D0FB681B6804221A76FB68DB7E1A0008
:10228000022313400AD0FB689B7E1A0002231340EE
:1022900004D0FB68DB68FA6810009847BB6802222C
:1022A000134014D0FB681B6802221A76FB68DB7EA1
:1022B0001A00042313400AD0FB689B7E1A000423F3
:1022C000134004D0FB681B69FA6810009847C046A9
:1022D000BD4604B080BDC046B045002015210100B8
:1022E0003D2101008521010080B500AF0020024B97
:1022F0009847C046BD4680BDA921010080B582B087
:1023000000AF0200FB1D1A70074AFB1D1B78190065
:102310001F230B40012199400B0019008023D1504D
:10232000C046BD4602B080BD00E100E080B584B08B
:1023300000AF0200FB1D1A70FB1D1A78374B92008C
:10234000D358FB60FB681B68BB60BB689B79DBB242
:102350001A00012313400ED0BB6801229A71FB685A
:102360001433002B07D0FB685B7C002B03D0FB6889
:102370009B6900209847BB689B79DBB21A00022357
:10238000134047D0BB6802229A71FB689B899BB2BD
:10239000002B33D0FB689A68FB68DB899BB2591C21
:1023A00088B2F968C8815B00D3181B889AB2BB68F1
:1023B0009A81FB689B899BB2013B9AB2FB689A8128
:1023C000FB689B899BB2002B18D1FB68202200215F
:1023D0009954BB6802221A71BB6802229A711920B3
:1023E0000F4B9847FB681433002B07D0FB689B7C8E
:1023F000002B03D0FB68DB6900209847FB6814338F
:10240000002B07D0FB681B7C002B03D0FB685B69AB
:1024100000209847C046BD4604B080BDB4450020AA
:10242000FD22010080B500AF0020024B9847C04656
:10243000BD4680BD2D23010080B500AF024B9847FB
:10244000C046BD4680BDC0465562020080B500AFA3
:10245000024B9847C046BD4680BDC046A9620200F7
:1024600080B586B000AF494B9847494B1B8C9BB257
:10247000DAB21723FB180F210A401A701723FB1832
:102480001A78444B9200D3583B61414A3B691B7810
:102490000F210B40D9B23F23D1543D490F23FB18E4
:1024A0004E228A5C1A703B691B783B4A1B01D31889
:1024B00002331B889BB2BB603B691B78374A1B0108
:1024C000D31802331B889BB27B60BA687B68D21A30
:1024D0003B695A610F23FB181B780122134016D069
:1024E0002B4A4E230121D1543B6910225A743B6977
:1024F0001B7C1A000123134042D03B695B68002B10
:102500003ED03B695B683A691000984738E00F237A
:10251000FB181B780222134016D01D4A4E230221BD
:10252000D1543B6900225A743B691B7C1A00022378
:10253000134025D03B699B68002B21D03B699B68E9
:102540003A69100098471BE00F23FB181B78042200
:10255000134015D00E4A4E230421D1543B69062264
:102560005A743B691B7C1A000423134008D03B6952
:10257000DB68002B04D03B69DB683A6910009847A0
:10258000074B9847C046BD4606B080BD39240100C0
:102590000048004170030020C045002020030020B7
:1025A0004D24010080B582B000AF154B1B697B60E4
:1025B000144B9B693B60124B9A683B681A43104B63
:1025C0009A60104B104A9A6108E07B685A687B68F1
:1025D0001B68180090477B689B687B607B68002BBA
:1025E000F3D1074BDB683B60054B9B683A68D243ED
:1025F0001A40034B9A60C046BD4602B080BDC0463B
:102600000000002000040042FFFF0F0F80B582B0E1
:1026100000AF02003960FB1D1A70FB1D1B78012BF7
:102620000AD0022B0FD0002B14D10E4B0D4A91690A
:102630003A680A439A610FE00A4B0A4AD1693A683C
:102640000A43DA6108E0074B064A116A3A680A430E
:102650001A6201E0172300E000231800BD4602B013
:1026600080BDC0460004004080B500AF02210220BA
:10267000074B9847074B01221A70C046054B1B7841
:10268000DBB21A0001231340F8D1C046BD4680BD1D
:102690000D2601000004004280B584B000AF7860D0
:1026A0007B681B68FB60FB68DB69072213405A1ECE
:1026B0009341DBB21800BD4604B080BD80B582B046
:1026C00000AF7860C0467B681800044B9847031E33
:1026D000F9D1C046BD4602B080BDC0469926010072
:1026E00080B584B000AF78607B681B68FB60FB68D6
:1026F0001B681B01DB0FDBB21A000B23FB18511EFA
:102700008A411A700823FB187A68528B1A807B68FA
:102710009B8B9AB20823FB180821791809888A1A1A
:102720001A807B689B8B9BB2013B9AB27B689A8331
:102730000B23FB181B78002B10D07B68DB7A002B57
:102740001CD07B689B8B9BB2012B17D1FB685B680D
:102750008022D2021A43FB685A600FE07B68DB7A62
:10276000002B0BD07B689B8B9BB2002B06D1FB68A8
:102770005B688022D2021A43FB685A607B689B8B9D
:102780009BB2002B0ED17B689B7A002B0AD07B6812
:1027900018000E4B9847FB685B68C02292021A43F0
:1027A000FB685A607B681800084B98477B681A6A78
:1027B0000823FB181B88D318FA682821525CD2B270
:1027C0001A70C046BD4604B080BDC046BD2601009B
:1027D00080B584B000AF78607B681B68FB60FB68E5
:1027E0005B8B9BB21A000423134004D07B68252224
:1027F0001E21995424E00A23FB187A68528B1A8010
:102800007B689B8B9AB20A23FB180A2179180988E6
:102810008A1A1A807B689B8B9BB2013B9AB27B68B9
:102820009A837B681800084B98477B681A6A0A23CA
:10283000FB181B88D3181B78D9B2FB68282299543F
:10284000BD4604B080BDC046BD26010080B584B041
:1028500000AF78607B681B68FB60FB681B7EDBB2A7
:102860001A00012313402BD0FB6801221A76FB6863
:102870005B8B9BB21A000223134004D07B68252295
:10288000412199541CE0FB685B8B9BB21A00042326
:10289000134015D07B682522182199547B680022AB
:1028A0009A837B689B7A002B0AD07B681800134BB5
:1028B0009847FB685B68C02292021A43FB685A6023
:1028C0007B689B8B9AB27B685A837B6825229B5CD2
:1028D000DBB2052B0ED17B6824229B5CDBB2002B84
:1028E00004D17B681800064B984703E07B6818000A
:1028F000044B9847C046BD4604B080BDBD260100CC
:10290000D1270100E126010080B584B000AFF86056
:10291000B960FB1D1A70FB1D1B78FA6802339B001F
:10292000D3180433BA681A60FB681B7EDBB25AB254
:10293000FB1D1B78012199400B005BB213435BB276
:10294000DAB2FB681A76C046BD4604B080BD00000E
:1029500090B587B000AF786039607B681B683B61D9
:102960003B685A687B681A623B685A887B689A831E
:102970007B682422012199547B68252205219954E2
:102980003B691B681B01DB0FDBB21A000F23FB182E
:10299000511E8A411A703B685B7A002B06D03B6857
:1029A0009A7A7B68110018003B4B98470F23FB185D
:1029B0001B78002B0BD03B685B88012B07D13B6950
:1029C0005B688022D2021A433B695A6005E03B698A
:1029D0005B68324A1A403B695A603B681B7A002B9D
:1029E00045D03B681B885A003B685B7A9B031343C6
:1029F0001A0080231B021A433B695A621723FC18F2
:102A00007B681800264B9847030023703B695B687E
:102A1000224A1A403B695A601723FB181B78002B87
:102A200007D11723FC187B6818001E4B984703003A
:102A300023701723FB181B78002B14D13B6903224A
:102A40009A753B681B881B0A9BB2782213439BB282
:102A50005A003B685B7A9B031343012213431A001D
:102A60003B695A6212E01723FB181B780FE03B69A1
:102A700003229A753B681B885B0001221A433B685E
:102A80005B7A9B0313431A003B695A6200231800C8
:102A9000BD4607B090BDC046F57C0100FFFFFBFFBF
:102AA000977C0100397C010080B582B000AF78606E
:102AB00039607B689B8B9BB2002B01D005230CE017
:102AC0007B6801229A727B680122DA723A687B681D
:102AD00011001800034B984703001800BD4602B0D0
:102AE00080BDC0465129010080B584B000AF786038
:102AF00039607B681B68FB603B685B7A002B06D003
:102B00003B689A7A7B68110018001E4B9847FB6857
:102B10005B681D4A1A40FB685A603B685A687B68CC
:102B20001A623B685A887B689A837B68242200215A
:102B300099547B68252205219954FB6803229A75D4
:102B40003B681B7A002B0DD03B681B885A003B6802
:102B50005B7A9B0313431A0080231B021A43FB6812
:102B60005A6209E03B681B885A003B685B7A9B030A
:102B700013431A00FB685A6200231800BD4604B0D4
:102B800080BDC046F57C0100FFFFFBFF80B582B031
:102B900000AF786039607B689B8B9BB2002B01D0C3
:102BA00005230CE07B6801229A727B680122DA72AD
:102BB0003A687B6811001800034B9847030018001F
:102BC000BD4602B080BDC046E92A010080B586B08E
:102BD00000AF0200FB1D1A70FB1D1A78934B920088
:102BE000D3587B617B691B683B613B691B681B0198
:102BF000DB0FDBB21A000F23FB18511E8A411A703B
:102C00000E23FB187A69527E1A707B691B7EDAB23A
:102C10000E23FB180E21791809780A401A707B6977
:102C20005B8B9BB2002B09D17B699B8B9BB2002BEA
:102C300004D07B6918007E4B984770E07B695B8B02
:102C40009BB2002B39D07B699B8B9BB2002B34D17C
:102C50007B6925229B5CDBB2052B2ED17B6924226C
:102C60009B5CDBB2002B28D13B6903221A757B6980
:102C700000225A837B692522002199547B699B7A23
:102C8000002B0BD07B6918006A4B98473B695B6847
:102C9000C02292021A433B695A6002E03B6901225A
:102CA0001A760E23FB181B780122134037D07B695C
:102CB000DB687A691000984731E07B695B8B9BB2D7
:102CC000002B2CD07B699B8B9BB2002B27D03B69C0
:102CD0005B8B9BB21A002023134011D10F23FB18EA
:102CE0001B7801225340DBB2002B04D17B699B8B04
:102CF0009BB2012B04D07B692522412199540EE01F
:102D00007B6924229B5CDBB2002B04D17B69180019
:102D1000494B984703E07B691800484B98477B690B
:102D20005B8B9BB2002B47D07B699B8B9BB2002BAC
:102D300042D17B6925229B5CDBB2052B3CD17B69B0
:102D400024229B5CDBB2012B36D13B691B7EDBB2BC
:102D50001A000223134002D03B6902221A763B6913
:102D600003221A757B6900225A837B692522002180
:102D700099540E23FB181B78022213400BD07B6959
:102D800024229B5CDBB2012B05D17B691B697A692C
:102D90001000984710E00E23FB181B780122134007
:102DA0000AD07B6924229B5CDBB2002B04D17B69B7
:102DB000DB687A69100098477B6925229B5CDBB24F
:102DC000052B2ED07B6925229B5CDBB2002B28D003
:102DD0003B6903221A757B6900225A837B690022B2
:102DE0009A837B6925229B5CDBB2412B0ED07B69E9
:102DF0009B7A002B0AD07B6918000E4B98473B69E1
:102E00005B68E022D2021A433B695A600E23FB182A
:102E10001B780422134004D07B695B697A69100037
:102E20009847C046BD4606B080BDC046885A0020BF
:102E30004D280100BD260100D1270100E126010037
:102E400080B500AFBFF34F8F024B034ADA60BFF388
:102E50004F8FFEE700ED00E00400FA0580B500AFFB
:102E6000024B9847C046BD4680BDC046412E01007A
:102E700080B586B000AF78609E4B18009E4B984797
:102E80009E4B18009C4B98479D4B18009A4B9847B7
:102E90009C4B1800984B98479B4B1800964B9847B3
:102EA0009A4B1800944B9847994B1800924B9847AF
:102EB000984B1800904B9847974B18008E4B9847AB
:102EC0001723FB1800221A70944B1800944B984754
:102ED000032200210120934B98470200924B1A6075
:102EE000914B1B68002B07D1904B19000320904B8E
:102EF000984700208F4B98470C23FB1818008E4BE7
:102F000098470C23FB181B780A2B04D00C23FB18C2
:102F10001B780D2B37D1894B1800814B9847884B74
:102F200000221A70874B00221A708749874B312282
:102F30001800874B9847854B3122002199548549C9
:102F4000814B64221800844B984703003B61814BFE
:102F50006322002199547F4B1800714B98473B69BD
:102F6000002BECD11723FB1800221A70764B32226B
:102F700000211800794B9847764B642200211800F5
:102F8000764B9847B5E06E4B1B78002B59D06D4BB4
:102F90001B78032B0CD86B4B1B785A1CD1B2694A97
:102FA00011701A000C23FB1819786D4B995405E029
:102FB000634B00221A70634B00221A70614B1B781E
:102FC000012B99D9674A664B11001800664B984748
:102FD000031E2FD065495C4B1B221800644B984799
:102FE000594B18004E4B98471723FB1800221A70B4
:102FF000554B322200211800584B98475349524BE9
:1030000031221800524B98474F4B1800594B9847A4
:103010000300302B06D84D4B1800564B9847030041
:10302000DAB200E031221723FB181A70464B180061
:103030003B4B9847424B00221A70424B00221A70B9
:103040005AE70C23FB181B780D2B00D154E70C23F7
:10305000FB181B78082B04D00C23FB181B787F2B44
:103060001CD10823FB18444A12681A600823FB1875
:1030700018002B4B98471723FB181B78002B37D0D1
:103080001723FB181A781723FB18013A1A70172315
:10309000FB181B782C4A0021D15429E00C23FB1883
:1030A0001B781B2B06D1264B01221A70254B0022C0
:1030B0001A7021E71723FB181B78312B0ED8172322
:1030C000FB181B780C22BA1811781F4AD154172309
:1030D000FB181A781723FB1801321A700C23FB18FF
:1030E00000225A700C23FB1818000D4B984703E779
:1030F000C04601E7F46103003D7E0100E461030086
:10310000646203000462030014620300246203008B
:103110003462030044620300546203003C5E030017
:1031200015DE0100B5A40100104600205860030020
:1031300001DF0100A1C201007D31010078600300C0
:103140009403002095030020CC0300209803002066
:10315000474E030000040020AD7E01005F4A0300DB
:10316000640400207C600300614D03008060030064
:103170001D4D0300174E03008860030080B584B026
:1031800000AF78607B6818000C4B98470300FB6029
:103190000DE00B4B1A6801235B4219001000094B2C
:1031A00098477B681800054B98470300FB60FB6855
:1031B0000133EED0C046BD4604B080BDB1DE010093
:1031C000104600206DB4010080B500AF0A4B00220C
:1031D0001A600A4B1B68084A11001800084B9847F0
:1031E000054B1B68002B03D0064B802252051A604A
:1031F000C046BD4680BDC046680400201046002081
:10320000E5AD010004ED00E0B0B58AB002AFF860B2
:10321000B9607A60494B98470300FB611B23FA1899
:10322000FB6911001800464B98471B23FB181B78BD
:10323000002B64D0434B062200211800424B9847D4
:10324000404AFB6911001800404B98473D4B002253
:103250009B5E18003E4B9847021C3E4B1A60394B50
:1032600002229B5E18003A4B9847021C394B5A6069
:10327000344B04229B5E1800354B9847021C354B9B
:103280009A60344B1A68344B101C98470500314B38
:103290005A68314B101C984704002E4B9A682E4BED
:1032A000101C984703002D4AB968F86801930094F0
:1032B0002B002B4CA047274B1A68274B101C984714
:1032C00003001AB21423FB181A80224B5A68224BAF
:1032D000101C984703001AB21423FB185A801D4B88
:1032E0009A681D4B101C984703001AB21423FB1850
:1032F0009A801423FB1818001A4B984719E01A4AB1
:10330000B968FB681800164B98471423FB18012274
:1033100052421A801423FB18022252425A8014236C
:10332000FB18032252429A801423FB1818000D4BFD
:10333000984700231800BD4608B0B0BD15520100E3
:10334000094C01006C0400205F4A0300454C010059
:103350009944010074040020053003008C600300D0
:10336000B94C030055740100B060030090B587B0FC
:1033700000AFF860B9607A601723FB181B221A703F
:103380001723FB181B78084A08480F21084CA04750
:10339000064AB968FB681800054B984700231800D7
:1033A000BD4607B090BDC046D8600300840300202E
:1033B000B94C030080B584B000AFF860B9607A60A2
:1033C0000220034B984700231800BD4604B080BD7F
:1033D0002174010080B584B000AFF860B9607A60F4
:1033E000034B984700231800BD4604B080BDC0467B
:1033F0005D2E010090B591B000AFF860B9607A60C1
:103400001C23FA187B6801211800494B98470300D8
:10341000FB631823FA187B6802211800444B984775
:103420000300BB631423FA187B6803211800404B88
:10343000984703007B631023FA187B680421180067
:103440003B4B984703003B63FB691A00FB6B9B18DF
:1034500000221A70BB691A00BB6B9B1800221A70FD
:103460007B691A007B6B9B1800221A703B691A005B
:103470003B6B9B1800221A70FB6B18002D4B984772
:103480000300FB62BB6B18002A4B98470300BB622A
:103490007B6B1800274B984703007B623B6B18003F
:1034A000244B984703003B62FB6A002B20DBFB6A3E
:1034B0000F2B1DDCBB6A002B1ADBBB6AFF2B17DC52
:1034C0007B6A002B14DB7B6AFF2B11DC3B6A002B31
:1034D0000EDB3B6AFF2B0BDCFB6AD8B2BB6AD9B2AE
:1034E0007B6ADAB23B6ADBB2134CA047031E07D0FB
:1034F000124AB968FB681800114B9847012312E083
:10350000FB6AD8B2BB6AD9B27B6ADAB23B6ADBB279
:10351000094CA0470B4B98470B4AB968FB68180049
:10352000074B984700231800BD4611B090BDC04618
:10353000D57F0100AD490300C9550100E0600300DB
:10354000B94C030091560100F860030090B599B0A2
:1035500000AFF860B9607A605F23FC18364B98477B
:10356000030023705F23FB181B78002B5DD0102312
:10357000FB1801211800314B98470300BB65BB6D58
:10358000002B50D11023FB181A785723FB18032166
:103590000A401A701023FB181A785623FB18920859
:1035A0001A705623FB181B78DB08DBB29A005623EF
:1035B000FB181B7807210B40D3183B655723FB18DA
:1035C0001B78022B15D13B6D002B00DA0733DB1083
:1035D0009A003B6D1A490B4004D5013B0821494232
:1035E0000B430133D318174AB968F868164CA04743
:1035F00019E05723FB181B78032B14D13B6D002BCC
:1036000000DA0733DB109A003B6D0D490B4004D5FF
:10361000013B082149420B430133D3180B4AB968D7
:10362000F868094CA047012302E00023FB60002357
:103630001800BD4619B090BD155401007D5401001D
:10364000070000800C610300B94C030028610300EF
:1036500090B587B000AFF860B9607A601223FB18AC
:1036600000221A801223FB1864211800194B984776
:1036700003007B617B69002B06D07B69164AB96821
:10368000F868164CA04707E01223FB181B88144A61
:10369000B968F868114CA0471223FB181800114BA9
:1036A000984703007B617B69012B0ED1FB681800F2
:1036B0000D4B984703001A00FB689A180B4B10003B
:1036C00019001A231A000A4B984700231800BD4618
:1036D00007B090BD213A010040610300B94C0300DE
:1036E0005461030081740100174E030068610300F8
:1036F000294A030080B58AB000AFF860B9607A60EB
:103700001023FB1800221A701023FB1801225A7094
:103710001023FB1802229A701023FB180322DA7080
:103720001023FB1804221A711023FB1805225A716A
:103730001023FB1806229A711023FB180722DA7156
:103740001023FB1808221A721023FB1809225A7240
:103750001023FB18FF229A721023FB181800094B44
:10376000984703007B627B6A012B05D1064AB96842
:10377000FB681800054B984700231800BD460AB0A7
:1037800080BDC046AD74010084610300B94C0300E4
:1037900090B58FB000AFF860B9607A601823FB185D
:1037A00000221A701823FB1800225A701823FB18E5
:1037B00000221A701823FB1800225A701C23FB18D1
:1037C00000221A701C23FB181422BA189A601C23BA
:1037D000FB180122DA811C23FB181822BA185A6040
:1037E0001C23FB1801229A812A4B18002A4B984768
:1037F00000237B6342E07B6B284A29480F21294C38
:10380000A047274B1800244B984700233B632BE02D
:103810007B6BDAB23B6BDBB2D318DAB21C23FB183A
:103820001A701C23FB186422642118001E4B984751
:103830000300FB62FB6A002B0CD11C23FB181B78D6
:103840001A4A17480F21174CA047154B1800124B66
:10385000984706E0124B164A1A60114B18000E4B9F
:1038600098473B6B01333B633B6B0F2BD0DD114B18
:103870001800094B98477B6B10337B637B6B7F2B66
:10388000B9DD0C4B1800044B984700231800BD46C7
:103890000FB090BDA061030015DE0100D4610300EC
:1038A00084030020B94C030041430100DC610300A4
:1038B000582020007860030080B588B000AF7860A1
:1038C0003A4B18003A4B9847002214210220394BFA
:1038D00098470200384B1A60002203210220354B22
:1038E00098470200354B1A60334B1B68002B03D0FE
:1038F000324B1B68002B03D1314B18002C4B9847DF
:10390000304B00221A702F4B1B78012B1DD0022B3D
:1039100042D0002B3CD1284B1B680C22B918002246
:103920001800294B98470300012B37D1274B19006A
:103930000120274B98470C23FB181800254B98476C
:10394000204B01221A70C04628E0234B9847031EE3
:1039500026D0224B9847031E08D0214B1900012086
:103960001B4B9847174B02221A7019E01D4B9847C2
:10397000030018001C4B98470300012B04D01B4B7D
:1039800019000120124B98470E4B00221A7007E0D5
:103990000C4B00221A7004E0C04602E0C04600E072
:1039A000C0462820124B9847ADE7C046746203001A
:1039B00015DE0100B5A4010080040020840400206D
:1039C000946203001446002015B00100C062030099
:1039D00001DF0100215B01005D5B0100815B0100F3
:1039E000E8620300715B0100AD7401002463030011
:1039F000C1C1010090B585B000AF7860064B186872
:103A0000796800230A22054CA0470300FB60FB688D
:103A10001800BD4605B090BD800400205DA70100E0
:103A200080B584B000AF786039600023FB609623D6
:103A30005B001800254B98470300FB60FB68002BD8
:103A400039D1234B55221A702149224B01221800EB
:103A5000214B9847031E30D1204B1B683A68110058
:103A600018001F4B98470300012B03D003235B4230
:103A7000FB6023E01B49174B022218001A4B9847A2
:103A8000164B1B683A6811001800154B9847030045
:103A9000012B0CD1134B1B789BB21B029AB2114B1A
:103AA0005B789BB2D3189AB27B681A8006E0032336
:103AB0005B42FB6002E0C04600E0C0460B4B98470B
:103AC000FB681800BD4604B080BDC046293B01001C
:103AD0001A46002024460020898F02001C46002040
:103AE0006DB4010018460020D18F0200F13A0100A8
:103AF00090B583B000AF00237B60094B18680023AA
:103B000000220021074CA0470300012B02D0142300
:103B10005B427B607B681800BD4603B090BDC04629
:103B2000204600205DA7010080B584B000AF78601A
:103B30000023FB60084B1B687A6811001800074BD4
:103B400098470300012B02D01D235B42FB60FB68FA
:103B50001800BD4604B080BD204600206DB40100B1
:103B600080B582B000AF0200FB1D1A70064BFA1D33
:103B7000127811001F220A40012191400A001A60A8
:103B8000C046BD4602B080BD00E100E080B584B013
:103B900000AF78607B681B68FB60FB68DB6907220D
:103BA00013405A1E9341DBB21800BD4604B080BDDD
:103BB00080B582B000AF7860C0467B681800044BC7
:103BC0009847031EF9D1C046BD4602B080BDC0462D
:103BD0008D3B010080B582B000AF78607B686422C5
:103BE0001A607B681B4A5A607B6800229A607B6877
:103BF00000221A737B6800221A767B688022920367
:103C00001A617B6801225242DA827B6801225242A9
:103C10009A827B680022DA617B6800221A627B68E4
:103C20002422002199547B6800229A627B682C220E
:103C3000002199547B682D22002199547B682E2203
:103C4000002199547B68D7221A86C046BD4602B02F
:103C500080BDC046480D000080B584B000AF7860DC
:103C60007B681B68BB600023FB607B681800144BFB
:103C70009847BB681B6802221A43BB681A607B68BE
:103C80001B6818000F4B9847030018000E4B98470D
:103C90000CE0FB680133FB607B68DB881A00FB6883
:103CA0009A4203D8BB6810225A8306E0BB685B8B3C
:103CB0009BB21A0010231340EBD0BD4604B080BD68
:103CC000B13B010029770200613B010080B582B061
:103CD00000AF78600A00FB1C1A707B685B7EDBB269
:103CE0005AB2FB1C1B78012199400B005BB21343B5
:103CF0005BB2DAB27B685A76C046BD4602B080BD80
:103D000090B591B000AF0023FB633A23FB1800226B
:103D10001A703B1D1800214B98473B1D204ADA6161
:103D20003B1D204A1A623B1DFA229200DA823B2395
:103D3000FB1803221A701EE03A23FC183A1D1A4998
:103D40001A4B18001A4B9847030023703A23FB18AC
:103D50001B78002B04D13A23FB181B78FB630FE080
:103D6000124B1800134B98473B23FB181A783B2340
:103D7000FB18013A1A703B23FB181B78002BDBD190
:103D8000FB6B002B04D1094B18000B4B984700E04C
:103D9000C046FB6B1800BD4611B090BDD53B01007D
:103DA0000200080002000900000800425C460020F2
:103DB0009D7A0100D17B0100593C010080B584B09F
:103DC00000AF78600E4B00221A700D4B01229A60F2
:103DD0000023FB600B4B1B680C22BA181100180063
:103DE000094B9847094B00221A70FB68002B03D03F
:103DF000074B802252051A60C046BD4604B080BD04
:103E00008C04002084460020E5AD010088040020D9
:103E100004ED00E080B584B000AF78600E4B002266
:103E20001A700D4B01229A600023FB600B4B1B683C
:103E30000C22BA1811001800094B9847094B0022B0
:103E40001A70FB68002B03D0074B802252051A60C2
:103E5000C046BD4604B080BD8C04002084460020CE
:103E6000E5AD01008804002004ED00E080B584B0D9
:103E700000AF78600E4B00221A700D4B01225A6081
:103E80000023FB600B4B1B680C22BA1811001800B2
:103E9000094B9847094B01221A70FB68002B03D08D
:103EA000074B802252051A60C046BD4604B080BD53
:103EB0008C04002084460020E5AD01008804002029
:103EC00004ED00E080B500AF1149124B002218004C
:103ED000114B98470F4B00211800104B9847104981
:103EE0000C4B012218000C4B98470A4B012118007B
:103EF0000A4B98470B49074B02221800064B98477C
:103F0000044B02211800054B9847C046BD4680BDB2
:103F1000BD3D01005C46002009290100CD3C0100A7
:103F2000153E01006D3E010080B582B000AF002358
:103F30007B60144B984703007B607B68002B1AD191
:103F4000114B98470120114B98470200104B1A6003
:103F50000322002101200F4B984702000E4B1A60EC
:103F60000B4B1B68002B03D00B4B1B68002B03D1A2
:103F700006237B6000E0C0467B681800BD4602B0A7
:103F800080BDC046013D0100C53E01001DA70100E6
:103F900058460020B5A401008446002090B585B0A5
:103FA00000AF78600023FB607B68002B03D07B6848
:103FB0005B68002B03D108235B42FB601FE07B683A
:103FC0001B789AB2104B1A807B685A680E4B5A6065
:103FD0007B68DA890C4B5A800B23FC180A4A0B4B7E
:103FE000110018000A4B9847030023700B23FB189D
:103FF0001B78002B03D006235B42FB60C046FB68A6
:104000001800BD4605B090BD884600205C460020E3
:104010008D2B010090B585B000AF78600023FB6068
:104020007B68002B03D07B685B68002B03D10823DF
:104030005B42FB601FE07B681B789AB2104B1A80D2
:104040007B689A680E4B5A607B689A890C4B5A8041
:104050000B23FC180A4A0B4B110018000A4B984717
:10406000030023700B23FB181B78002B03D00623BF
:104070005B42FB60C046FB681800BD4605B090BDC2
:10408000884600205C460020A92A010090B583B034
:1040900000AF00237B60094B186800230022002139
:1040A000074CA0470300012B02D014235B427B6026
:1040B0007B681800BD4603B090BDC046584600203E
:1040C0005DA7010080B584B000AF78600023FB607D
:1040D000084B1B687A6811001800074B98470300CB
:1040E000012B02D01D235B42FB60FB681800BD461C
:1040F00004B080BD584600206DB4010080B584B086
:1041000000AF78600023FB60044B1A687B681A607C
:10411000FB681800BD4604B080BDC0468446002040
:1041200080B500AF024B1B781800BD4680BDC0466D
:104130008804002080B582B000AF0200FB1D1A7019
:10414000034BFA1D12781A70C046BD4602B080BDFE
:104150008804002080B584B000AF78603960002307
:10416000FB600023BB6096235B001800284B984738
:104170000300FB60FB68002B38D10823FB181800F4
:10418000244B98470300FB60FB68002B30D17B6811
:104190001800214B98470300FB60FB68002B2AD1D5
:1041A000BB683A68110018001C4B98470300012BAC
:1041B00011D11B4B9847031E11D00020194B984773
:1041C000FB68002B03D021235B42FB6014E0032338
:1041D0005B42FB6010E003235B42FB600CE0124B90
:1041E00098470200FB681343FB6002E0C04600E012
:1041F000C046FB6807E0C0460B4B98470200FB68CF
:104200001343FB60FB681800BD4604B080BDC04688
:10421000C5400100FD4001009D3F01006DB401005B
:1042200021410100354101008D40010080B586B07B
:1042300000AFF860B9607A6000237B6100233B61C6
:1042400096235B001800354B984703007B617B6920
:10425000002B55D11023FB181800314B9847030051
:104260007B617B69002B4DD1FB6818002D4B984773
:1042700003007B617B69002B47D13B697A681100A1
:104280001800294B98470300012B18D1274B98475A
:10429000031E06D00020264B984703235B427B6118
:1042A00034E0BB681800234B9847FB681800224B8A
:1042B000984703007B617B69002B04D026E0032331
:1042C0005B427B6122E03B697A6811001800164B63
:1042D00098470300012B0AD1144B9847031E0AD0BC
:1042E0000020134B984703235B427B610EE00323BE
:1042F0005B427B610AE0114B984703007B6102E05F
:10430000C04600E0C0467B6903E0C0460B4B9847BF
:104310007B691800BD4606B080BDC046C54001009F
:10432000FD4001009D3F01006DB4010021410100ED
:1043300035410100C1C10100154001008D4001005F
:1043400080B586B000AFF860B9607A6000237B6109
:1043500000233B6196235B001800244B9847030021
:104360007B617B69002B33D11023FB181800204B95
:10437000984703007B617B69002B2BD1FB681800F9
:104380001C4B984703007B617B69002B25D13B695F
:104390007A6811001800184B98470300012B13D1BD
:1043A000164B9847031E06D00020154B9847032351
:1043B0005B427B6112E0BB681800124B9847124BBE
:1043C000984703007B6106E003235B427B6105E0C5
:1043D000C04600E0C0467B6903E0C0460A4B9847F0
:1043E0007B691800BD4606B080BDC046C5400100CF
:1043F000FD4001009D3F01006DB40100214101001D
:1044000035410100C1C101008D400100B0B586B049
:1044100000AFF86008007A6019000B23FB18021C3B
:104420001A700823FB180A1C1A80FB685C68FB687A
:1044300098680823FB181D887A680B23FB181978E5
:104440002B00A04703007B617B691800BD4606B0C6
:10445000B0BDB0B586B000AFF86008007A60190052
:104460000B23FB18021C1A700823FB180A1C1A8065
:10447000FB681C68FB6898680823FB181D887A682D
:104480000B23FB1819782B00A04703007B617B6985
:104490001800BD4606B0B0BD80B582B000AF0200C6
:1044A000BB1D1A80BB1D00229A5E064B1000984768
:1044B000021C054B0549101C9847031C181CBD46DF
:1044C00002B080BD45300300C52D030023DB793DDC
:1044D00090B585B000AF78600A00FB1C1A70082305
:1044E000FA18786801231021124CA0470300FB60E2
:1044F000FB68002B19D1FB1C1B7803221340DAB296
:104500000823FB1803210A4090001A780C218A43E3
:10451000111C021C0A431A700823FA187868012338
:104520001021054CA0470300FB60FB681800BD4646
:1045300005B090BD0D4401005344010090B587B013
:1045400000AF78600A00FB1C1A701723FB18FA1CD6
:1045500012781A700C23FA187B6811001800A44B0B
:10456000984703003B613B69002B00D013E10C230B
:10457000FB181B78DB07DB0FDAB20C23FB181B7868
:104580009B07DB0FDBB21343DAB20C23FB181B785B
:104590005B07DB0FDBB21343DAB20C23FB181B788B
:1045A0001B07DB0FDBB21343DAB20C23FB181B78BB
:1045B000DB06DB0FDBB21343DAB20C23FB181B78EC
:1045C0009B06DB0FDBB21343DAB20C23FB181B781C
:1045D0005B06DB0FDBB21343DAB20C23FB181B784C
:1045E0001B06DB0FDBB21343DAB20C23FB185B783C
:1045F000DB07DB0FDBB21343DAB20C23FB185B786B
:104600009B07DB0FDBB21343DAB20C23FB185B789A
:104610005B07DB0FDBB21343DAB20C23FB185B78CA
:104620001B07DB0FDBB21343DAB20C23FB185B78FA
:10463000DB06DB0FDBB21343DAB20C23FB185B782B
:104640009B06DB0FDBB21343DAB20C23FB185B785B
:104650005B06DB0FDBB21343DAB20C23FB185B788B
:104660001B06DB0FDBB21343DBB2012B00D092E061
:104670000B23FA187B68110018005E4B9847030063
:104680003B613B69002B00D085E00B23FB181B78B6
:10469000012B17D002DC002B05D076E0022B29D0AD
:1046A000032B48D071E0FB1C1B78002B04D117238F
:1046B000FB1801221A706EE01723FB18FA1C1278FF
:1046C0001A7068E0FB1C1B78002B04D11723FB1821
:1046D00002221A705FE0FB1C1B78012B04D1172308
:1046E000FB1802221A7056E01723FB18FA1C1278E6
:1046F0001A7050E0FB1C1B78002B04D11723FB1809
:1047000003221A7047E0FB1C1B78012B04D11723EE
:10471000FB1803221A703EE0FB1C1B78022B04D10D
:104720001723FB1803221A7035E01723FB18FA1C15
:1047300012781A702FE0FB1C1B78002B04D1172372
:10474000FB1804221A7026E0FB1C1B78012B04D1F5
:104750001723FB1804221A701DE0FB1C1B78022B88
:1047600004D11723FB1804221A7014E0FB1C1B78D9
:10477000032B04D11723FB1804221A700BE0172314
:10478000FB18FA1C12781A7005E01723FB18FA1CA4
:1047900012781A70C0463B69002B08D10823FA181A
:1047A000786801231021144CA04703003B613B694A
:1047B000002B18D11723FB181B780F221340DAB2F5
:1047C0000823FB1810011A780F210A40111C021C43
:1047D0000A431A700823FA18786801231021074C3D
:1047E000A04703003B613B691800BD4607B090BD80
:1047F000195001006D5001000D44010053440100A7
:1048000090B585B000AF78600A00FB1C1A700823D1
:10481000FA18786801231121124CA0470300FB60AD
:10482000FB68002B19D1FB1C1B7807221340DAB25E
:104830000823FB1807210A4090181A780E218A4392
:10484000111C021C0A431A700823FA187868012305
:104850001121054CA0470300FB60FB681800BD4612
:1048600005B090BD0D4401005344010090B587B0E0
:1048700000AF78600A00FB1C1A701723FB18FA1CA3
:1048800012781A700C23FA187B6811001800A44BD8
:10489000984703003B613B69002B00D013E10C23D8
:1048A000FB181B78DB07DB0FDAB20C23FB181B7835
:1048B0009B07DB0FDBB21343DAB20C23FB181B7828
:1048C0005B07DB0FDBB21343DAB20C23FB181B7858
:1048D0001B07DB0FDBB21343DAB20C23FB181B7888
:1048E000DB06DB0FDBB21343DAB20C23FB181B78B9
:1048F0009B06DB0FDBB21343DAB20C23FB181B78E9
:104900005B06DB0FDBB21343DAB20C23FB181B7818
:104910001B06DB0FDBB21343DAB20C23FB185B7808
:10492000DB07DB0FDBB21343DAB20C23FB185B7837
:104930009B07DB0FDBB21343DAB20C23FB185B7867
:104940005B07DB0FDBB21343DAB20C23FB185B7897
:104950001B07DB0FDBB21343DAB20C23FB185B78C7
:10496000DB06DB0FDBB21343DAB20C23FB185B78F8
:104970009B06DB0FDBB21343DAB20C23FB185B7828
:104980005B06DB0FDBB21343DAB20C23FB185B7858
:104990001B06DB0FDBB21343DBB2012B00D092E02E
:1049A0000B23FA187B68110018005E4B9847030030
:1049B0003B613B69002B00D085E00B23FB181B7883
:1049C000012B17D002DC002B05D076E0022B29D07A
:1049D000032B48D071E0FB1C1B78002B04D117235C
:1049E000FB1801221A706EE01723FB18FA1C1278CC
:1049F0001A7068E0FB1C1B78002B04D11723FB18EE
:104A000002221A705FE0FB1C1B78012B04D11723D4
:104A1000FB1802221A7056E01723FB18FA1C1278B2
:104A20001A7050E0FB1C1B78002B04D11723FB18D5
:104A300003221A7047E0FB1C1B78012B04D11723BB
:104A4000FB1803221A703EE0FB1C1B78022B04D1DA
:104A50001723FB1803221A7035E01723FB18FA1CE2
:104A600012781A702FE0FB1C1B78002B04D117233F
:104A7000FB1804221A7026E0FB1C1B78012B04D1C2
:104A80001723FB1804221A701DE0FB1C1B78022B55
:104A900004D11723FB1804221A7014E0FB1C1B78A6
:104AA000032B04D11723FB1804221A700BE01723E1
:104AB000FB18FA1C12781A7005E01723FB18FA1C71
:104AC00012781A70C0463B69002B08D10823FA18E7
:104AD000786801231121144CA04703003B613B6916
:104AE000002B18D11723FB181B780F221340DAB2C2
:104AF0000823FB1810011A780F210A40111C021C10
:104B00000A431A700823FA18786801231121074C08
:104B1000A04703003B613B691800BD4607B090BD4C
:104B2000195001006D5001000D4401005344010073
:104B300090B585B000AF78600A00FB1C1A7008239E
:104B4000FA18786801231221124CA0470300FB6079
:104B5000FB68002B19D1FB1C1B7801221340DAB231
:104B60000823FB1801210A4090011A7840218A434A
:104B7000111C021C0A431A700823FA1878680123D2
:104B80001221054CA0470300FB60FB681800BD46DE
:104B900005B090BD0D4401005344010090B585B0AF
:104BA00000AF78600A00FB1C1A700823FA187868B6
:104BB00001231521124CA0470300FB60FB68002B6A
:104BC00019D1FB1C1B7801221340DAB20823FB1811
:104BD00001210A40D0001A7808218A43111C021CC6
:104BE0000A431A700823FA18786801231521054C26
:104BF000A0470300FB60FB681800BD4605B090BDF0
:104C00000D4401005344010090B585B000AF7860B9
:104C100039600823FA18786801231E21084CA04740
:104C20000300FB600823FB181B78DB07DB0FDBB2FC
:104C30001A003B681A70FB681800BD4605B090BDAD
:104C40000D44010090B587B000AF786039600C2347
:104C5000FA18786806232821264CA04703007B61B8
:104C60000C23FB185B781AB23B681A803B68002261
:104C70009B5E9BB21B029AB20C23FB181B789BB263
:104C8000D3189BB21AB23B681A803B6802330C22DD
:104C9000BA18D27812B21A803B6802333A680232EC
:104CA0000021525E92B2120291B20C22BA1892788E
:104CB00092B28A1892B212B21A803B6804330C2264
:104CC000BA18527912B21A803B6804333A68043237
:104CD0000021525E92B2120291B20C22BA181279DD
:104CE00092B28A1892B212B21A807B691800BD463D
:104CF00007B090BD0D44010090B585B000AF78605D
:104D00000A00FB1C1A700823FA1878680123012195
:104D1000114CA0470300FB60FB68002B17D1FB1C64
:104D20001B7803221340DAB20823FB1890011A788B
:104D30003F210A40111C021C0A431A700823FA186A
:104D4000786801230121054CA0470300FB60FB6844
:104D50001800BD4605B090BD0D440100534401004C
:104D600090B585B000AF786039603A687868012303
:104D70000F21044CA0470300FB60FB681800BD46F0
:104D800005B090BD0D44010090B585B000AF7860CE
:104D90000A00FB1C1A700823FA18786801231221F4
:104DA000124CA0470300FB60FB68002B19D1FB1CD1
:104DB0001B7801221340DAB20823FB1801210A40B4
:104DC00010001A7801218A43111C021C0A431A7030
:104DD0000823FA18786801231221054CA047030024
:104DE000FB60FB681800BD4605B090BD0D44010096
:104DF0005344010090B585B000AF78603960082356
:104E0000FA18786801231221084CA0470300FB60C0
:104E10000823FB181B78DB07DB0FDBB21A003B68AB
:104E20001A70FB681800BD4605B090BD0D44010026
:104E300090B585B000AF78600A00FB1C1A7008239B
:104E4000FA18786801231021124CA0470300FB6078
:104E5000FB68002B19D1FB1C1B7801221340DAB22E
:104E60000823FB1801210A4090181A7802218A436E
:104E7000111C021C0A431A700823FA1878680123CF
:104E80001021054CA0470300FB60FB681800BD46DD
:104E900005B090BD0D4401005344010090B585B0AC
:104EA00000AF78600A00FB1C1A700823FA187868B3
:104EB00001231721254CA0470300FB60FB68002B52
:104EC0003FD1FB1C1B781B09DBB21A1C01231340CA
:104ED000DAB20823FB1801210A4090001A78042155
:104EE0008A43111C021C0A431A70FB1C1B785B09C5
:104EF000DBB21A1C01231340DAB20823FB1801218C
:104F00000A4010011A7810218A43111C021C0A431E
:104F10001A70FB1C1B7807221340DAB20823FB1817
:104F200050011A781F210A40111C021C0A431A70F2
:104F30000823FA18786801231721054CA0470300BD
:104F4000FB60FB681800BD4605B090BD0D44010034
:104F50005344010090B587B000AF78600A00FB1C95
:104F60001A700C23FA18786801231821284CA047DE
:104F700003007B617B69002B1CD1FB1C1B78DB09C8
:104F8000DBB21A1C01231340DAB20C23FB180121F7
:104F90000A4090181A7802218A43111C021C0A4305
:104FA0001A700C23FA18786801231821194CA047AD
:104FB00003007B617B69002B08D11023FA18786805
:104FC00001236221124CA04703007B617B69002B07
:104FD00019D1FB1C1B7803221340DAB21023FB18F3
:104FE00003210A40D0001A7818218A43111C021CA0
:104FF0000A431A701023FA18786801236221054CBD
:10500000A04703007B617B691800BD4607B090BDD7
:105010000D4401005344010090B585B000AF7860A5
:1050200039607B68022118000E4B98470300FB6033
:10503000FB68002B07D13A687868022346210A4CA6
:10504000A0470300FB60FB68002B06D17B680021B2
:105050001800044B98470300FB60FB681800BD462E
:1050600005B090BDF94C01000D44010090B585B02C
:1050700000AF786039607B6802211800214B9847A7
:105080000300FB60FB68002B08D10823FA1878683E
:1050900001235F211C4CA0470300FB60FB68002B31
:1050A0002BD10823FB181B78DB069B0FDBB2012BEF
:1050B0000CD002DC002B05D014E0022B0AD0032B0D
:1050C0000CD00FE03B6800221A700FE03B68012211
:1050D0001A700BE03B6802221A7007E03B6803225B
:1050E0001A7003E03B6800221A70C0467B680021FA
:1050F0001800044B98470300FB60FB681800BD468E
:1051000005B090BDF94C01000D44010080B586B09A
:1051100000AFF86008007A6019000B23FB18021C2E
:105120001A700823FB180A1C1A80194B0B22BA1894
:1051300012781A7000237B610AE07B6901337A6977
:1051400079688A181178124AD1547B6901337B61DE
:105150000823FB181A887B699A42EEDC0D4B6B2200
:105160001A700823FB181B8801339AB2094BDA81A5
:10517000084B074A5A60074B64211800064B9847B2
:1051800003003B613B691800BD4606B080BDC046C8
:1051900094460020D44600205541010080B586B0D9
:1051A00000AFF86008007A6019000B23FB18021C9E
:1051B0001A700823FB180A1C1A80134B6B221A70F2
:1051C000114B0822BA1812889A810F4B7A689A609C
:1051D0000D4B0122DA810D4B0B22BA1812781A708E
:1051E0000A4B00225A70084B084A5A60064B642248
:1051F00005211800064B984703007B617B69180066
:10520000BD4606B080BDC046D4460020944600206E
:105210002D42010080B500AF014B1800BD4680BD96
:105220001400002080B582B000AF00237B60234BC8
:1052300001211800224B984703007B60FA1C1F4B8A
:10524000110018001F4B984702007B6813437B60D6
:10525000FB1C1B78002BF1D1184B802118001A4B36
:105260009847164B01211800184B9847134B002103
:105270001800174B9847114B01211800154B984700
:105280000E4B01211800144B98470C4B00211800BD
:10529000124B9847094B06211800114B9847074BB2
:1052A000042118000F4B9847044B012118000E4BA6
:1052B00098477B681800BD4602B080BD14000020EE
:1052C000894D0100F54D0100554F0100314B0100A2
:1052D0009D4B01003D4501006D480100D144010096
:1052E000014801009D4E0100314E010080B582B0A1
:1052F00000AF384B2E221A70364B374A5A60354B66
:105300000222DA81334B3A009A60324B01229A81B1
:10531000304B642200211800304B984703007B601B
:105320007B68002B04D02E4B18002E4B98470CE0C6
:105330003B001B78552B04D02B4B1800294B98476A
:1053400003E02A4B1800274B9847224B284A5A6003
:10535000204B0322DA811F4B64211800254B98470C
:1053600003007B607B68002B03D0234B18001D4B90
:105370009847184B214A5A60164B0322DA81154B85
:10538000642118001B4B984703007B607B68002B4F
:1053900003D01B4B1800134B98470E4B194A5A6009
:1053A0000C4B0422DA810B4B64211800114B9847F7
:1053B00003007B607B68002B03D0134B1800094B64
:1053C0009847124B9847124B98477B681800BD4688
:1053D00002B080BDE4460020546303002D4201006A
:1053E0006C63030015DE01008C6303009863030007
:1053F0005863030055410100AC6303005C63030084
:10540000CC63030060630300F8630300C15701002D
:10541000D156010080B582B000AFFB1C00221A708B
:10542000114B2E221A70104B104A5A600E4B02225A
:10543000DA810D4BFA1C9A600B4B01229A810A4BC0
:105440006422002118000A4B984703007B607B68A8
:10545000002B03D0074B1800074B9847FB1C1B7809
:105460001800BD4602B080BDE4460020686303001A
:105470002D4201002C64030015DE010080B584B0CC
:1054800000AF78600A00FB1C1A70FB1C1B78002B15
:1054900001D1002326E00823FB18144A12881A8041
:1054A000134B2E221A70124B0822BA185A60104B56
:1054B0000222DA810E4B7A689A60FB1C1B789AB242
:1054C0000B4B9A810A4B642200211800094B984724
:1054D0000300FB60FB68002B03D0074B1800074B51
:1054E0009847FB681800BD4604B080BD50640300B7
:1054F000E44600202D4201002C64030015DE01006B
:1055000090B587B000AF040008001100FB1D221CFD
:105510001A70BB1D021C1A707B1D0A1C1A70102306
:10552000FB187A1D12780121100008401A78012119
:105530008A43111C021C0A431A70BB1D1B780122EE
:105540009A401300DBB21A1C0F231340DAB2102367
:10555000FB180F210A4090181A781E218A43111C4B
:10556000021C0A431A700C23FB1810221A700C2319
:10557000FB1801225A700C23FB18FA1D12789A703E
:105580001023FB181A780C23FB18DA700C4B2E2210
:105590001A700B4B0C22BA185A60094B0422DA819C
:1055A000074B00229A81064B64211800054B98474F
:1055B00003007B617B691800BD4607B090BDC04603
:1055C000E446002055410100B0B586B000AF0500AB
:1055D0000C0010001900FB1D2A1C1A70BB1D221C98
:1055E0001A707B1D021C1A703B1D0A1C1A700823BE
:1055F000FB180E221A700823FB1804225A70082385
:10560000FB1800229A700823FB180022DA70082386
:10561000FB187A1D12781A710823FB18BA1D12782C
:105620005A710823FB183A1D12789A71FB1D1B78DA
:105630009BB21622BA18191C0B1CDB185B181380BE
:105640001623FB181B881B0A9BB2DAB20823FB182F
:105650009A701623FB181B88DAB20823FB18DA703D
:10566000094B0822BA185A60074B0722DA81064B09
:1056700064211800054B984703003B613B69180003
:10568000BD4606B0B0BDC046E4460020554101000D
:1056900080B582B000AF3B000A4A12881A800A4BDC
:1056A0003A005A60084B0222DA81074B6421180045
:1056B000064B984703007B607B681800BD4602B02C
:1056C00080BDC04654640300E446002055410100FB
:1056D00080B582B000AF334B2E221A70314B324A64
:1056E0005A60304B0322DA812E4B00229A812D4BD7
:1056F000642118002D4B984703003B603B68002B4A
:1057000003D02B4B18002B4B984700237B6041E0C4
:105710007B68002B00DA03339B10DBB2DB00DAB2CC
:105720007B6825490B4004D5013B042149420B43CA
:105730000133DBB2D318DBB20122032118001F4B67
:10574000984703003B607B68002B00DA03339B1013
:10575000DBB2DB00DAB27B6817490B4004D5013BB2
:10576000042149420B430133DBB2D318DBB20122DF
:1057700002211800114B984702003B6813433B601D
:105780003B68002B03D00A4B18000A4B98477B68F4
:1057900001337B607B680F2BBADDC046BD4602B08B
:1057A00080BDC046E446002064630300554101000B
:1057B0005864030015DE010003000080015501005C
:1057C000B0B500AFFF23FF22FF210F20094CA047F7
:1057D000094B9847C8235B001800084B98470023E3
:1057E000002200210F20034CA047034B9847C046DE
:1057F000BD46B0BDC955010091560100C1C10100AF
:1058000090B589B000AF7860AF4B1800AF4B9847A8
:10581000AF4B01221A70AE4B1B78012B05D0022B27
:1058200016D0002B00D185E045E10023FB6109E0A3
:10583000FB69D8B2002300220021A64CA047FB69D7
:105840000133FB61FB690F2BF2DDA34B984737E176
:10585000A24B00221A70A24B01221A70A14B1422F3
:10586000FF211800A04B9847A04B00221A701B2361
:10587000FC189F4B9847030023701B23FB181B78D1
:105880000F2B03D91B23FB1810221A701B23FB18A4
:105890001B78002B07D01B23FB181A78954B11009F
:1058A0001800954B9847934B1022002118008E4BFF
:1058B000984700237B6134E00B23FB188F497A69FA
:1058C0008A1812781A707B69DBB20133DAB2844B22
:1058D0001A700B23FB181B78FF2B26D0884B1B78E4
:1058E000D9B2884B1B78DAB2874B1B78DCB20B231A
:1058F000FB1818782300774CA047774B9847FA237A
:105900009B001800814B98470B23FB181878002345
:10591000002200216F4CA0476F4B98477B690133F1
:105920007B617B69132BC7DD00E0C046684B00221A
:105930001A70C5E01323FC186D4B984703002370C1
:105940006C4B102200211800674B98471323FB185B
:105950001B780F2B03D91323FB1810221A70132363
:10596000FB181B78002B00D194E01323FB181A7846
:10597000604B11001800604B9847031E00D089E06F
:105980000023FB607DE05B4AFB68D3181B789B0813
:10599000DBB2002B00DA0733DB10DBB29B00D9B29D
:1059A000544AFB68D3181B789B08DBB207221340CC
:1059B000DAB20A23FB188A181A704E4AFB68D31809
:1059C0001A780923FB1803210A401A700923FB18CF
:1059D0001B78032B0FD14A4B1B78D9B2494B1B784C
:1059E000DAB2494B1B78DCB20A23FB181878230083
:1059F000384CA04742E00A23FB1818780023002205
:105A00000021344CA0470A23FB181A78404B190098
:105A10000120404B9847314B1B781A00304B1B78C4
:105A2000013B9A421CD02D4B1B781A00334B9B5CD8
:105A30000A22BA1812789A4212D0284B1B781A0000
:105A40002E4B9B5C1A00344B19000120314B9847B8
:105A5000324B01221A70224B1A78204B1A7017E031
:105A60001E4B1B7819001F4B0A22BA1812785A5481
:105A70001A4B1B780133DAB2184B1A70FB680133EA
:105A8000FB601323FB181A78FB689A4200DD7AE763
:105A9000114B9847114B1A78114B1B789A4203D23D
:105AA0000E4B1B78132B0AD9104B01221A70084B8E
:105AB00001221A7003E0064B00221A7000E0C04673
:105AC0003220124B9847A6E67C64030015DE0100E5
:105AD0002C470020C95501009156010022000020EA
:105AE000A2040020F44600205F4A0300A304002023
:105AF000155401001C4700207D5401000847002078
:105B0000A00400202000002021000020C1C10100CD
:105B10009064030001DF0100A8640300A1040020D9
:105B200080B582B000AF7860084A7B681000190029
:105B300014231A00064B9847064B02221A70064B94
:105B400000221A70C046BD4602B080BD0847002042
:105B5000294A03002C470020A304002080B500AF91
:105B6000024B1B781800BD4680BDC046A304002030
:105B700080B500AF014B1800BD4680BDF446002043
:105B800080B500AF024B1B78DBB21800BD4680BD6C
:105B9000A104002090B583B000AF040008001100FC
:105BA000FB1D221C1A70BB1D021C1A707B1D0A1CD7
:105BB0001A70084BFA1D12781A70074BBA1D12782A
:105BC0001A70064B7A1D12781A70C046BD4603B093
:105BD00090BDC046A004002020000020210000202D
:105BE00080B584B000AF0200FB1D1A700F23FB18B4
:105BF000FA1D1278D2091A700E23FB18FA1D1278BA
:105C000052091A700D4BBB600F23FB181B78002B39
:105C10000FD10F23FB181B789B0010229446BC4425
:105C20006344083B1A680E23FB181B78DB01D3186A
:105C300000E000231800BD4604B080BD00440041D0
:105C400080B582B000AF0200FB1D1A70FB1D1B78EF
:105C50001800034B984703001800BD4602B080BDF2
:105C6000E15B010080B584B000AF0200FB1D1A703B
:105C7000BB1D0A1C1A70FB1D1B7818000D4B9847A2
:105C80000300FB60FB1D1B781F22134001229A407A
:105C90001300BB60BB1D1B78002B03D0FB68BA68E8
:105CA0009A6102E0FB68BA685A61C046BD4604B01A
:105CB00080BDC046415C010080B500AF024B0022B0
:105CC0001A70C046BD4680BDB904002080B582B0C0
:105CD00000AF0200FB1D1A70FB1D1B785BB2DB439B
:105CE0005BB2064A127852B213405BB2DAB2034B8F
:105CF0001A70C046BD4602B080BDC046B90400203F
:105D000080B582B000AF0200FB1D1A70054B1A78F7
:105D1000FB1D1B781343DAB2024B1A70C046BD4616
:105D200002B080BDB904002080B582B000AF02008F
:105D3000FB1D1A70064B1B78FA1D12781340DBB25C
:105D40005A1E9341DBB21800BD4602B080BDC0466A
:105D5000B904002090B585B000AF786039607B68E9
:105D6000002B02D03B68002B01D1002313E00F234E
:105D7000FC1839680A4B002218000A4B98470300A8
:105D80002370074B1800084B98470F23FB181B780C
:105D90005A425341DBB21800BD4605B090BDC04623
:105DA000EC060020ADD90200ADE3020080B59EB044
:105DB00000AFF860B960FB1D1A707623FB18012252
:105DC0001A807423FB1800221A806E23FB1800220D
:105DD0001A807223FB1800221A802423FB18180053
:105DE00041231A000021924B98471823FB181800F2
:105DF00009231A0000218E4B98471423FB18002218
:105E00001A600023BB667123FB1800221A70BB685E
:105E1000002B01D1002306E1BA68FB6811001800CD
:105E2000844B984703001A0001235340DBB2002B38
:105E300001D00123F7E0BB6818007F4B98470300AF
:105E4000402B01D90023EEE0BB682E2118007B4BCC
:105E500098470300BB66BB6E002B52D0BB6E180088
:105E6000754B984702006E23FB181A806E23FB18AF
:105E70001B88072B37D87123FB1801221A70BA6EC2
:105E80001823FB18110018006D4B9847BB681800C9
:105E9000694B984702006E23FB181B88D31A3C2BD2
:105EA00011D97423FB186E22BA1812883C218A1A61
:105EB0001A807423FB181A88B9682423FB18180069
:105EC000604B98472AE0BA6EBB68D21A7423FB185D
:105ED0001A807423FB181A88B9682423FB18180049
:105EE000584B98471AE07423FB183C221A807423FD
:105EF000FB181A88B9682423FB181800514B9847DF
:105F00000CE07423FB183C221A807423FB181A88B7
:105F1000B9682423FB1818004A4B98477423FB18D0
:105F20001B887422BA18591C11801A002423FB18EC
:105F30002D2199547623FB1800221A807223FB1816
:105F400001221A8010E07223FA187223FB181B88B2
:105F5000191C8900CB18DB1813807623FB181A88CC
:105F60007623FB1801321A807623FB181B88022B3C
:105F7000E9D97623FB1801221A804BE07623FB181F
:105F80001A8831491423FB181800304B98477423A2
:105F9000FB181B882422BA18D3181422B91803221C
:105FA0001800284B98477123FB181B78002B0CD046
:105FB0007423FB181B8803332422BA18D318182221
:105FC000BA18110018001E4B98472423FA18FB68D2
:105FD00011001800174B984703001A000123534083
:105FE000DBB2002B0FD0FB1D1A78BB680021180014
:105FF0000F4B98472423FA18BB6811001800104B68
:10600000984701230FE07623FB181A887623FB18A4
:1060100001321A807623FA187223FB1812881B8823
:106020009A42ABD300231800BD461EB080BDC046C7
:106030005F4A0300555D0100174E0300714E0300D7
:10604000CB4D0300474E0300D46403001D4D0300F5
:1060500090B583B002AF0120224B984703001A008D
:1060600001235340DBB2002B05D01F4B1900012048
:106070001E4B984732E002201A4B984703001A0043
:1060800001235340DBB2002B05D0194B190001202E
:10609000164B984722E00420124B9847031E05D068
:1060A000144B19000120114B984717E008200D4BA5
:1060B0009847031E05D0104B190001200B4B984741
:1060C0000CE00E4B19000120084B98470C490D4875
:1060D00000230093002301220B4CA047BD4601B0D2
:1060E00090BDC046295D0100DC64030001DF0100B2
:1060F0000865030034650300606503008C650300D8
:10610000B86503008847002001100300B0B586B0D1
:1061100000AF786039607B68002B02D03B68002BB1
:1061200005D1584B19000120574B9847A6E008208D
:10613000564B984703001A0001235340DBB2002B53
:1061400055D000237B61524B30221A70504B3A22BB
:106150005A70504B7B6102E07B69013B7B617B693C
:106160001B782F2BF8D17B6918004B4B9847030005
:10617000012B24D97B6901337B617A69474B11007C
:106180001800474B98474249464B40221800464B5F
:1061900098473F4A454B190001203B4B9847132332
:1061A000FC183B493F4B0A221800414B984703001B
:1061B00023701323FB181B78002B12D008E03D4BF3
:1061C00019000120304B984720203B4B984755E061
:1061D0001323FB181A78394B190001202A4B9847D2
:1061E0004CE0374B00221A600820334B98477B68FD
:1061F000002B43D00023FB601323FC180C23FB1857
:106200003A68796827482F4DA84703002370132365
:10621000FB181B78002B0CD0224B18002A4B9847F8
:106220002020254B9847294B19000120164B9847F1
:1062300024E0234B1A68FB68D218214B1A60204BCC
:106240001A68234B1B68234901200F4CA0471C4BA5
:106250001A681F4B1B689A4210D3124B18001A4B36
:1062600098471D4B19000120074B98470021172024
:106270001A4B98471020104B9847C046BD4606B0B1
:10628000B0BDC046E465030001DF0100295D0100E7
:10629000A8000020E3650300174E0300AA000020B9
:1062A000CB4D0300EC060020AD5D01004866030005
:1062B000ADD9020008660300015D010070660300AD
:1062C00014070020DDDE0200ADE30200A466030037
:1062D00010070020E066030014670300655C0100FE
:1062E00090B585B000AFF860B9607A60BB68042BE8
:1062F00000D977E0BB689A003C4BD3181B689F46D7
:106300003B4B190001203B4B98476BE03A4B19007F
:106310000120384B98470420384B984762E07B684F
:106320001B881A007B685B6835490120314CA04707
:106330007B681B88C82B0DD17B685A68314B1A606B
:10634000314B00221A607B685A6880239B009A4276
:1063500043D803E02020294B984743E07B689A68A4
:106360007B685B6819001000284B98471020234B6E
:10637000984732E07B685A687B681B6819001000F8
:10638000224B98477B681B7A002B28D010201B4B90
:10639000984724E07B681A681D4B19000120154BB3
:1063A00098477B681B680B331BD10820194B984713
:1063B000031E06D0184B1800184B98470820184B9E
:1063C00098470420134B9847031E02D00420144B17
:1063D0009847144B9847C04603E0C04602E0C046C9
:1063E00000E0C046BD4605B090BDC046646E0300E7
:1063F0004867030001DF010080670300015D0100C1
:10640000AC67030010070020140700200D61010095
:10641000E8670300295D0100EC060020ADE30200FF
:10642000CD5C01005160010080B582B000AF3A60E0
:10643000FB1D021C1A70BB1D0A1C1A703A68BB1D9A
:106440001978FB1D1B785BB21800034B9847C046B8
:10645000BD4602B080BDC046110D0300B0B586B088
:1064600004AF786039603B68FF2213401C003B6832
:106470001B0A1A00FF2313403A68120C1100FF2276
:106480000A403968090E0D007868094902950192A1
:106490000093230002000120064CA0473A687B6865
:1064A00011001800044B9847C046BD4602B0B0BD6D
:1064B0001868030001DF0100750E030090B587B076
:1064C00002AF02003960FB1D1A70FB1D1B782C2BDC
:1064D00002D0322B3DD06FE03B68FB60FB681B783D
:1064E000012B07D1364B19000120364B9847364B0C
:1064F00098475EE0FB681B78002B5AD1334B19009C
:106500000120304B98470220314B98470820314BEF
:106510009847031E06D0304B1800304B9847082090
:106520002B4B984704202B4B9847031E02D0042086
:10653000274B98472A4B012118002A4B98472A4A93
:106540002A48FF230093130002220921284CA04768
:106550002FE03B68BB60BB681B781800BB68013349
:106560001B781C00BB6802331B781A00BB6803331E
:106570001B78204901930092230002000120114C56
:10658000A04702201C4B98471C4B1B78012B02D1C3
:106590001B4B98470FE01B4A114B110018001A4B78
:1065A0009847031E07D0194B19000120054B984747
:1065B00001E0C04600E0C046C046BD4605B090BD03
:1065C0004868030001DF0100E1240200686803005D
:1065D000CD5C0100295D0100EC060020ADE3020066
:1065E00018070020BDF902008C68030098680300BA
:1065F0000D200200A4680300015D0100B804002022
:1066000051600100C064030089F80200CC680300F7
:1066100090B583B000AF294B9847294B1900012052
:10662000284B9847FC1D0020274B984703002370F8
:10663000FB1D1B78012B10D1244B19000120214B8D
:106640009847234B190001201E4B9847C046002055
:10665000204B98470300022BF9D1FB1D1B78002B20
:10666000E0D11D4B19000120164B98478C239A004E
:106670001A4B002118001A4B9847BC1D174B1900E4
:106680000020184B984703002370BB1D1B780B2B71
:1066900007D1BB1D1A78144B19000120094B9847EC
:1066A00008E0124B19000120064B98470120104BBF
:1066B0009847C046BD4603B090BDC04619ED0100E5
:1066C000F068030001DF0100F5F101002869030013
:1066D0005069030069ED010084690300BC040020D7
:1066E0005F4A030055D90200A8690300D869030076
:1066F000015D010080B582B000AF3B1D1800084B62
:1067000098473A1D074B11001800074B9847054B57
:106710001800064B9847C046BD4602B080BDC04633
:10672000A524030030470020C9240300B525030039
:1067300080B588B000AF3B001800164B98473B006F
:10674000802292001A613B00134A5A603B00BC222F
:10675000FF321A803B0001229A703A000F4B110061
:1067600018000F4B98470300FB61FB69002B06DA0A
:10677000FA690C4B190001200B4B9847FEE70B4AB6
:10678000064B110018000A4B9847C046BD4608B09A
:1067900080BDC046390B03003047002088470020E9
:1067A000850B0300FC69030001DF0100E1620100C9
:1067B000710C030080B582B000AF3A60FB1D021C73
:1067C0001A70BB1D0A1C1A703A68BB1D1978FB1D94
:1067D0001B785BB21800034B9847C046BD4602B019
:1067E00080BDC04631F8020080B582B000AF78604D
:1067F00039603A687B6811001800034B9847C0461F
:10680000BD4602B080BDC04665F8020090B589B0B3
:1068100002AF78601023FB1800221A701023FB18B7
:1068200000225A701023FB1800229A707B685B6864
:106830005A687B685B689B682A4901202A4CA047FC
:106840007B681B689B68294904221800284B9847DD
:10685000031E43D17B681B689B680433FB600023E5
:106860007B6115E07C69631C7B61FB680C22B918B5
:106870000A2218001F4B98470300DAB21023FB18B6
:106880001A55FB681B782C2B0AD1FB680133FB607F
:106890007B69022B05DCFB681B78002BE2D100E052
:1068A000C0461023FB181B781A001023FB185B78D6
:1068B00018001023FB189B780F4900930300012058
:1068C000094CA0471023FB1818781023FB1859789F
:1068D0001023FB189B781A00084B9847C046BD460A
:1068E00007B090BD446A030001DF01004C6A030059
:1068F000254E0300D14F0300546A0300955B01004D
:1069000090B58BB000AF78600C23FB181422FF21E8
:106910001800484B98477B681B689B6846490922CA
:106920001800464B9847031E66D1454B19000120BD
:10693000444B98477B685B685A687B685B689B68D8
:10694000414901203F4CA0477B681B68DA687B689F
:106950001B689B683D4901203A4CA04700237B629D
:106960007B681B689B680933BB6015E07C6A631C0D
:106970007B62BB680822B9180A221800344B98477A
:106980000300DAB20C23FB181A55BB681B782C2BBA
:106990000AD1BB680133BB607B6A132B05DCBB6883
:1069A0001B78002BE2D100E0C0462A4B19000120E1
:1069B000244B984700233B620DE00C23FA183B6AF6
:1069C000D3181B781A00244B190001201D4B98473F
:1069D0003B6A01333B623B6A132BEEDD0C23FB1851
:1069E00018001E4B98470300012B1ED11C4B1900A9
:1069F0000120144B984718E01A4B19000120114B45
:106A000098477B685B685A687B685B689B680E493F
:106A100001200C4CA0477B681B68DA687B681B6808
:106A20009B680A490120074CA047C046BD460BB0F1
:106A300090BDC0465F4A0300686A0300254E03000C
:106A4000746A030001DF0100446A0300906A0300D6
:106A5000D14F0300986A0300AC6A0300F5390100C6
:106A6000B06A0300CC6A030090B583B000AF7860D1
:106A7000094B19000120094B98477B685B685A68ED
:106A80007B685B689B6806490120044CA047C046B0
:106A9000BD4603B090BDC046FC6A030001DF0100A3
:106AA000446A030090B58BB006AFF860B9607A60B5
:106AB000BB68012B3BD0052B5ED0002B00D061E0E2
:106AC0007B681B68002B25DB304B19000120304B05
:106AD00098473049304AF86800230593002304930F
:106AE0000023039300230293002301932A4B009376
:106AF0000B000121294CA047031E05D0284B19008B
:106B00000120234B98473DE0264B19000120204BE4
:106B1000984737E0244A254B190001201C4B984721
:106B2000214AFB6811001800214B98472AE07B6836
:106B30001B78002B17D11F4B1F49F86802221F4CEE
:106B4000A0471F4B1F49F86802221C4CA0471E4B50
:106B50001E49F8680222194CA0471D4B190001205C
:106B60000B4B98470EE07B681B781A00194B1900F5
:106B70000120074B984705E0174B19000120044BF3
:106B80009847C046C046BD4605B090BD606B030047
:106B900001DF01007C6B03008C6B0300D1F8020065
:106BA000986B0300C06B0300C0640300DC6B030040
:106BB00089F8020001690100146C030071FA0200F7
:106BC0000D6801003C6B0300696A0100286C03003A
:106BD0003C6C0300506C0300846C030080B588B0EB
:106BE00000AF3B1D18001F4B98473B1D1E4A9A6083
:106BF0003B1D80229200DA603B1D1C4A1A613B1D3E
:106C0000802292005A613B1D194A1A803B1D194A85
:106C10009A803A1D184B11001800184B9847030032
:106C2000FB61FB69002B06DAFA69154B190001209C
:106C3000144B9847FEE7144A0F4B11001800134BF2
:106C400098470300FB61FB69002B06DAFA69104BD9
:106C5000190001200B4B9847FEE7C046BD4608B01F
:106C600080BDC046C9F7020050070020500900202F
:106C70005B070000701700001807002019F70200DA
:106C8000986C030001DF0100A56A010009F8020009
:106C9000CC6C030080B584B000AF3B1D18000B4BDB
:106CA00098473B1D37221A603B1D00225A603B1D4E
:106CB00001221A723B1D0222DA723B1D19000720C5
:106CC000034B9847C046BD4604B080BD0169020031
:106CD0003569020080B500AF064B0022072118007D
:106CE000054B984700210720044B9847C046BD46F6
:106CF00080BDC046016D01000165020065650200AE
:106D0000B0B500AF0C4B1B685A1C0B4B1A600A4BFA
:106D10001B68282B02D9084B01221A60064B1B68FE
:106D2000064A07483F21074CA047074B01221A702B
:106D3000C046BD46B0BDC046A4000020006D0300A3
:106D400064000020B94C0300500B002080B500AF58
:106D5000154A164B11001800154B9847031E08D012
:106D6000144B19000120144B984702E00020134BEC
:106D700098470E4B34229B5C002BF7D1104B984761
:106D8000104B01221A70104A104B11001800104BC2
:106D90009847104B9847104B9847104B03221A7096
:106DA000C046BD4680BDC046C06403001807002031
:106DB000BDF90200CC68030001DF0100F11F0200F1
:106DC000AD550200B80400205D6401002964010093
:106DD000F55502005D55020051600100A404002039
:106DE00090B585B000AF09E000202A4B98472A4BA8
:106DF00018002A4B98470520294B98471020294B0B
:106E0000984703001A0001235340DBB2002B09D03E
:106E10002020244B984703001A0001235340DBB283
:106E2000002BE1D1204B9847FA239B0018001C4B04
:106E300098471E4B00221A703B001D4A13CA13C309
:106E40003B0030221A700F23FC183900194B0A221C
:106E50001800194B9847030023700F23FB181B7869
:106E6000002B08D00F23FB181A78144B19000020B0
:106E7000134B984703E0134B1800134B98470D4BE7
:106E80001800124B9847124B00221A70C046BD469C
:106E900005B090BDF11F020030470020E526030039
:106EA000C1C10100295D0100AD550200B8040020F8
:106EB000386D0300EC060020ADD90200146D03000C
:106EC00001DF0100246D030015DE0100ADE30200C7
:106ED000A404002080B500AF184B9847184B984782
:106EE000184A194B11001800184B9847184B98472F
:106EF000184B34229B5C01225340DBB2002B0CD098
:106F0000154A144B11001800144B9847031E04D067
:106F1000134B19000120134B98470E4B34229B5CF6
:106F2000002B04D0104B190001200E4B98470F4B3B
:106F300001221A70C046BD4680BDC046AD55020054
:106F4000DD6B0100E9670100B5670100F55502003E
:106F50005D55020018070020C064030089F8020094
:106F6000CC68030001DF0100446D0300A40400208D
:106F700080B500AF00200B4B98470B4B18000B4B14
:106F800098470B4B98470B4B98470B4B34229B5C15
:106F9000002B04D0084B64211800084B9847C046CA
:106FA000BD4680BDF11F020030470020E5260300EA
:106FB0004D700100C16F010018070020B9FA0200EE
:106FC00090B585B002AF184B1B683900002218003D
:106FD000164B98470300012B21D13B0000229B5EFA
:106FE0001C003B0002229B5E19003B0004229B5EBA
:106FF0000F4A10480193009123003F210E4CA047F7
:107000000C4B18000D4B984704000A4A0C490D48D8
:10701000002301930123009323000B4CA047C0469B
:10702000BD4603B090BDC046B004002015B00100BD
:10703000606D030024000020B94C0300174E0300CC
:10704000286C03001807002005FA020090B58BB0E9
:1070500002AF394B1B680822B91800221800374BC1
:1070600098470300012B63D1354B364A03CA03C34B
:1070700012881A800023FB612DE00823FA18FB69AF
:10708000D3181B78FF2B2AD00823FA18FB69D318D2
:107090001B782D4A380003212C4CA0473A00284B7E
:1070A000110018002A4B9847FB6901330822BA18CF
:1070B000D35CFF2B0CD0FB690133132B08DC3B00A6
:1070C0002C221A803A001E4B11001800204B9847C2
:1070D000FB690133FB61FB69132BCEDD00E0C04689
:1070E000174B18001B4B984703001A00144BD2187B
:1070F000194B1000190003231A00184B9847104B26
:1071000019000120164B9847164B19000120144B0B
:1071100098470B4B18000F4B98470400084A124938
:10712000124800230193012300932300104CA04731
:10713000C046BD4609B090BDAC04002015B00100AA
:1071400024000020686A0300846D0300B94C03002A
:107150009D4D0300174E0300886D0300294A03006C
:1071600001DF01008C6D0300906D03001807002003
:1071700005FA020090B58DB002AF78606420794BBB
:107180009847794B9847002204210520774B984770
:107190000200774B1A60002206210520734B9847A6
:1071A0000200744B1A600022142102206F4B984792
:1071B0000200714B1A600022022105206B4B984798
:1071C00002006E4B1A606A4B1B68002B0BD0694B98
:1071D0001B68002B07D0684B1B68002B03D0674B44
:1071E0001B68002B03D1664B1800664B9847664B13
:1071F0001800644B9847654B9847654B9847654B1B
:107200009847654B9847654B9847654B98470C23C3
:10721000FB18182200211800624B9847624B9847D0
:107220000C23FB18614A1A602723FC180C23FB1857
:1072300018005F4B9847030023702723FB181B7827
:107240005BB2002B09D02723FB1800229A56594B1A
:1072500019000120584B9847FEE7584A584B19002F
:107260000120554B9847574B9847574A574B1100A9
:107270001800574B9847574A5048FF230093130074
:1072800002220921544CA04706E00020534B9847A6
:10729000534B1800534B98470220534B9847030019
:1072A0001A0001235340DBB2002BEED1FA239B00DE
:1072B00018002C4B98474D4B01221A704B4B1B78F2
:1072C0005BB2012B0BD002DC002B05D010E0022BAF
:1072D00008D0032B09D00BE0454B98470CE0454BF9
:1072E000984709E0444B984706E0444B984703E031
:1072F0003E4B00221A70C0460B23FB1800221A7066
:107300001B4B1B680B22B918002218003C4B9847F6
:107310000300012B05D10B23FB181B785AB2334B0A
:107320001A70384B1B78DBB2002B17D0364B180085
:10733000364B98470400344A3549364800230193B8
:10734000012300932300344CA0472F4A334B1900EC
:107350000120194B98472B4B00221A706420014BD7
:107360009847ABE7C1C10100B95C0100B5A40100B9
:10737000A8040020B0040020AC040020B4040020C5
:10738000A46D030015DE0100CC6D0300F56601005D
:1073900031670100DD6B010011660100956C010091
:1073A000D56C01005F4A030025030200BD640100A3
:1073B000FD1D0200E86D030001DF01009868030075
:1073C000146E03005D550200E9670100B567010016
:1073D000F55502008C6803000D200200F11F020029
:1073E00030470020E5260300295D0100A4040020A9
:1073F000D56E0100716F01004D6D0100E16D01005E
:1074000015B00100500B002064000020174E03004F
:10741000386E03001807002005FA0200546E0300BE
:1074200090B583B000AF0200FB1D1A70FB1D1B78E6
:10743000032B06D8054B1868F91D00230A22044CBB
:10744000A047C046BD4603B090BDC046A80400207A
:107450005DA7010090B585B000AF7860064B186855
:10746000796800230A22054CA0470300FB60FB68F3
:107470001800BD4605B090BDB00400205DA7010016
:1074800090B585B000AF7860064B18687968002326
:107490000A22054CA0470300FB60FB681800BD46AC
:1074A00005B090BDB40400205DA7010090B585B083
:1074B00000AF7860064B1868796800230A22054CF3
:1074C000A0470300FB60FB681800BD4605B090BDF7
:1074D000AC0400205DA7010080B582B000AF7860E9
:1074E0007B6800221A70C046BD4602B080BD000015
:1074F00080B582B000AF02003960FB1D1A70FB1D21
:107500001B78012B0AD0022B0FD0002B14D10E4B6D
:107510000D4A91693A680A439A610FE00A4B0A4A98
:10752000D1693A680A43DA6108E0074B064A116AF2
:107530003A680A431A6201E0172300E000231800AA
:10754000BD4602B080BDC0460004004080B582B098
:1075500000AF78607B6880221A707B6800225A70C6
:107560007B6801229A707B680022DA70C046BD46B3
:1075700002B080BD80B500AF054B9B78DBB21A002E
:10758000022313405A1E9341DBB21800BD4680BD52
:107590000020004180B500AF024B9847C046BD4671
:1075A00080BDC0465562020080B500AF024B9847CF
:1075B000C046BD4680BDC046A962020080B582B00B
:1075C00000AF0200FB1D1A70074AFB1D1B78190053
:1075D0001F230B40012199400B0019008023D1503B
:1075E000C046BD4602B080BD00E100E080B584B079
:1075F00000AF78607B681B68FB60FB68DB69072273
:1076000013405A1E9341DBB21800BD4604B080BD42
:1076100080B582B000AF7860C0467B681800044B2C
:107620009847031EF9D1C046BD4602B080BDC04692
:10763000ED75010080B584B000AF78607B681B6891
:10764000FB607B681B6818000D4B9847030018000F
:107650000C4B98477B6818000B4B9847FB688322BC
:107660001A75FB6883221A76FB681B680222934313
:107670001A00FB681A60C046BD4604B080BDC04613
:1076800029770200BD75010011760100F0B597B0B1
:1076900000AF786139610023FB6300233B65002361
:1076A000FB643B2310229446BC44634400221A70BE
:1076B0007B691B68BB637B691B687B632323102288
:1076C000BA18D4187B6B1800C04B9847030023707E
:1076D0000C2310229446BC4463441800BC4B9847CA
:1076E0003B69DB697B643B691B6A3B647B6C002BF9
:1076F00006D17B6B00211800B64B984703007B64D2
:107700007B6CDAB20C2310218C46BC4463441A70A3
:107710000C2310229446BC44634402225A707B6CB2
:107720001B0CDBB20C2210218C46BC4462441100BD
:107730001800A94B98473B6C002B06D17B6B0121AD
:107740001800A44B984703003B643B6CDAB20C234F
:1077500010218C46BC4463441A700C2310229446BA
:10776000BC44634402225A703B6C1B0CDBB20C22FB
:1077700010218C46BC44624411001800964B984777
:107780003B699A8A7B69DA803B69DA8A7B691A816C
:107790003B691B7E002B03D1904B9847031E02D000
:1077A00080237B6501E000237B653B691B69002B1F
:1077B00004D03B691B697A6D13437B653B699B6809
:1077C0007A6D13437B653B6924229B5C002B04D0BC
:1077D0007B6D8022D20513437B653B699B6A002B3E
:1077E00004D03B699B6A7A6D13437B653B692C220D
:1077F0009B5C002B05D13B699A6880239B049A42CD
:1078000004D17B6D8022120513437B653B692D22D9
:107810009B5C002B04D07B6D8022120413437B659C
:107820003B692E229B5C002B04D07B6D8022D2030F
:1078300013437B65BB6B1A687B6D1A43BB6B1A6085
:10784000BB6B802252005A60232310229446BC4412
:1078500063441B781433DBB21800614B9847030074
:10786000FB623B691B68FA2292005343BB623B698F
:107870005B68FA22920053437B623B691B8E3B623A
:10788000584BF86A984705000E00564BB86A98475F
:10789000B860F960534BF86A9847534C534A544BBD
:1078A000A04703000C003B607C604E4B386A984751
:1078B00002000B004C4C38687968A04703000C00AC
:1078C000180021004B4C00224B4BA04703000C003A
:1078D0001A002300444CB868F968A04703000C0064
:1078E0001A002300454C28003100A04703000C007B
:1078F0001D002600BB6A5A003A4B10009847020050
:107900000B003C4C28003100A04703000C0018007D
:1079100021003A4C00223A4BA04703000C001D0006
:107920002600BB6A5A002F4B1000984702000B003C
:10793000344C28003100A04703000C00190022003D
:10794000314B0800110098470300FB633B699A68BC
:1079500080239B049A426AD1224BF86A9847254CAF
:1079600002000B00A04703000C001D0026001D4B69
:10797000786A98471C4C0022244BA04703000C0057
:107980001A0023001F4C28003100A04703000C0000
:1079900018002100194C0022194BA04703000C00CD
:1079A00019002200184B0800110098470300FB64DF
:1079B000FB6C002B2ED0164B796AF86A98470300AF
:1079C0009A1EFB6CD31A3B6531E0C0465976020023
:1079D0004D7501009D74020049A2020075750100F9
:1079E0000DA00200014903006D3D030095D626E875
:1079F0000B2E113EE5300300000024406D420300D1
:107A00000000F03F053703009948030000000840DC
:107A1000852A03007B6A5A00FB6AD3185A1E7B6AC8
:107A200059001D4B100098470300013B3B65FB6B61
:107A3000FF2B08DCFB6B002B05DB3B6DFF2B02DC17
:107A40003B6D002B06DA3B2310229446BC44634472
:107A500040221A703B2310229446BC4463441B7896
:107A6000402B0ED0FB6BFF221A403B6D1B0419000C
:107A7000FF231B040B401343FA6C12061A43BB6B23
:107A8000DA603B2310229446BC4463441B78180000
:107A9000BD4617B0F0BDC046852A030090B58BB037
:107AA00000AFF860B9607A60FB68BA681A60FB687A
:107AB0001B687B62FB681B6818003B4B9847030000
:107AC0003B623B6A0233FB613B6A1433BB610122B8
:107AD000FB699A40130019000220344B9847142385
